:020000040800F2
:1000000070040020C50000086D0E00088D0D00086A
:1000100000000000000000000000000000000000E0
:100020000000000000000000000000002510000893
:100030000000000000000000B50E000827100008B6
:10004000D700000800000000D7000008D700000813
:10005000D7000008D7000008D7000008D700000824
:1000600000000000D7000008D7000008D7000008F3
:10007000D7000008D7000008D700000800000000E3
:10008000D70000080000000000000000D7000008B2
:1000900000000000D7000008D7000008D7000008C3
:1000A00000000000D700000800000000D700000892
:1000B0000348854600F03CF800480047F51000086A
:1000C000700400200448804704480047FEE7FEE72C
:1000D000FEE7FEE7FEE7FEE779100008B100000842
:1000E00030B50B46014600202022012409E00D46D0
:1000F000D5409D4205D31D469540491B2546954058
:1001000040191546521E002DF1DC30BDD2B201E07F
:100110000270401C491EFBD270470022F6E710B562
:1001200013460A4604461946FFF7F0FF204610BD65
:10013000064C0125064E05E0E36807CC2B430C3C3A
:1001400098471034B442F7D3FFF7B6FFE423000812
:100150000424000801B5FF2301226946014800F08C
:1001600045FD08BD0800002010B5222000F096F8DB
:10017000C42000F0ADF8202000F090F8FF2000F03F
:100180008DF800F013F910BD70B5FF26054629362D
:10019000002133468022084600F0E8F8002421467A
:1001A000002000F0CFF8242000F078F8200140195A
:1001B000102100F0A7F8641CA4B2B442EFD3FFF7FB
:1001C000D3FF70BD10B5044600F04AF8012000F0DE
:1001D00065F8272000F07CF8012000F079F8002075
:1001E00000F076F80C2000F059F8D72000F070F8F5
:1001F000D62000F06DF89D2000F06AF82C2000F069
:100200004DF8A82000F064F83A2000F047F81A20D2
:1002100000F05EF83B2000F041F8082000F058F8AC
:100220003C2000F03BF8032000F052F8112000F0D1
:1002300035F8032000F04CF8322000F02FF8012CA4
:1002400002D0002C03D0FEE71E21044802E0034840
:100250001E211E3000F056F810BD00009823000843
:1002600070B5012209259402ED062146284600F0CA
:1002700062F9C82000F0A7F800222146284600F0C5
:100280005AF9C82000F09FF801222146284600F0C4
:1002900052F9C82000F097F870BD000070B505460F
:1002A0000121092000224902C00600F044F9074C50
:1002B00000220221204600F03EF92846FFF74AFFBF
:1002C00001220221204600F036F970BD00040048EA
:1002D00070B50546012209205102C00600F02BF935
:1002E000074C00220221204600F025F92846FFF79E
:1002F00031FF01220221204600F01DF970BD0000EF
:100300000004004870B505460C4601220920510240
:10031000C00600F010F9094E00220221304600F01C
:100320000AF9FF2322462946054800F05FFC012216
:100330000221304600F0FFF870BD000000040048C4
:100340000800002070B505460C464E20FFF7A6FFBA
:100350006805000EFFF7BCFF4F20FFF79FFFE0B2DC
:10036000FFF7B6FF200AFFF7B3FF70BDF8B50746E9
:100370001C4616460D464420FFF790FF7805000EF8
:10038000FFF7A6FF7005000EFFF7A2FF4520FFF75D
:1003900085FFE8B2FFF79CFF280AFFF799FFE0B25C
:1003A000FFF796FF200AFFF793FFF8BD70B5012411
:1003B00064030925ED062146284600F0B7F8012818
:1003C000F9D070BD704731B500F0BCF8009C05460F
:1003D000601C00D0641C00F0B5F8401BA042FAD3AA
:1003E00038BD0000F8B500238DE001249C40A446F0
:1003F00022407DD04C68022C01D0122C0CD1DC089C
:10040000A40027183C6A5D07ED0E0F26AE40B443EA
:100410000E69AE4026433E6205685E000324B44088
:100420000F79A543BF07BF0FB7402F4307604D6843
:10043000012D05D0022D03D0112D01D0122D0ED18A
:100440008568CF68A543B7402F43876047686546F6
:10045000AF430D79ED06ED0F9D403D434560C56806
:10046000A5438C68B4402C43C4604C68E40049D573
:10047000284CA56901263543A561A4699D0834402F
:100480000094254CAD002F19BC689D072E0F0F2539
:10049000B540AC430925ED06A84201D100250FE087
:1004A0001E4DA84201D101250AE01D4DA84201D1EF
:1004B000022505E01B4DA84201D1032500E00525DA
:1004C000B5402543BD60184C25684E689543F6033A
:1004D00000D51543256065684E689543B60300D581
:1004E00015436560A5684E689543F60202D500E0A5
:1004F00008E01543A560E5684E689543B60200D54F
:100500001543E5605B1C0A681446DC4000D06CE7CC
:10051000F8BD000000100240000001400004004847
:1005200000080048000C0048000401400069084031
:1005300000D001207047002A01D08161704781629C
:10054000704700000148006870470000000000206C
:1005500002480168491C016070470000000000204B
:1005600010B506480168102211430160002000F018
:1005700007F800F017F8002010BD0000002002402E
:1005800010B5044600F0BCF87D21C900FFF7A8FDB6
:1005900000F0E4FB00222146501E00F017F8002076
:1005A00010BD000008B5084881690122114381612E
:1005B000816911400091C26901040A43C261C069A6
:1005C0000840009008BD00000010024010B500F087
:1005D0004FFC10BDF8B5054644480E460068C007FC
:1005E000C00FB0420AD2414801684908490031436E
:1005F00001600068C007C00FB0425CD128783C4C55
:10060000800705D56068F0218843A96808436060C9
:100610002878C0073FD06868012813D021680228D5
:1006200013D08907002946DA6168890889000143E7
:100630006160FFF787FF6968074601290DD002292D
:1006400017D024E021688903ECE78901EAE7FFF786
:1006500079FFC11B2748814217D860680007800FC7
:100660000128F4D117E0FFF76DFFC11B214881423B
:100670000BD860680007800F0228F4D10BE0FFF769
:1006800061FFC11B1B48814201D90320F8BD60688E
:100690000007800FF3D115480168C907C90FB1429F
:1006A0000BD9016849084900314301600068C0075F
:1006B000C00FB04201D00120F8BD2878400706D510
:1006C0006068072109028843E9680843606000F018
:1006D0001DF86168084A0906090F515CC8400749BE
:1006E00008600020FFF74CFF0020F8BD002002400A
:1006F0000010024088130000D423000804000020EA
:1007000001480068704700000400002010B512A3E3
:100710000FCB88B06C460FC413A30FCB0FC4164980
:100720004A680C20134603401448042B0FD0082BB2
:100730000DD193021B0F6C46E45CC96A04AB090738
:10074000090F595CD20304D5FFF7CAFC604308B017
:1007500010BD0B486043FAE70203040506070809C9
:100760000A0B0C0D0E0F10100102030405060708FA
:10077000090A0B0C0D0E0F100010024000127A0037
:1007800000093D00FEB504460078D04DC00747D0B3
:1007900068680007800F012807D068680007800F8D
:1007A000022809D16868C00306D52868800337D5B8
:1007B000606800287ED033E0012062680004012ACE
:1007C00011D08100002A01D0052A10D02A68824366
:1007D0002A602868884328606068002814D0FFF7E2
:1007E000B1FE06460CE0296801432960F4E72A6857
:1007F0000A432A60F7E7FFF7A5FE801B64286FD83D
:1008000028688003F7D50BE0FFF79CFE064604E05E
:10081000FFF798FE801B6428F1D828688003F7D47E
:1008200020780126800700283BDA68680007800FDF
:1008300007D068680007800F022809D16868C003E4
:1008400006D42868800715D5E068012832D111E068
:10085000E0680028286815D030432860FFF772FE52
:10086000074604E0FFF76EFEC01B0228C7D82868C1
:100870008007F7D52868F82188432169C900084313
:1008800028600EE0400840002860FFF75BFE074646
:1008900004E0FFF757FEC01B0228B0D82868800785
:1008A000F7D42078000724D5E0690028686A10D0C2
:1008B000304300E008E16862FFF744FE074604E0C9
:1008C000FFF740FEC01B022899D8686A8007F7D559
:1008D0000FE0400840006862FFF734FE074605E07D
:1008E0009DE0FFF72FFEC01B022888D8686A8007AA
:1008F000F7D4207804274007002860DA0020019010
:10090000E869C00008D4E969B8060143E961E9690A
:1009100001400120009101906D480168C90511D482
:100920000168821511430160FFF70CFE009005E09D
:10093000FFF708FE0099401A642870D864480068E0
:10094000C005F5D5A06801280AD0002801D00528E7
:1009500010D0286A400840002862286AB84301E0A5
:10096000286A30432862A068002812D0FFF7EAFD09
:1009700000900AE0286A38432862F1E7FFF7E2FDB9
:100980000099411A5348814249D8286A8007F5D511
:100990000DE0FFF7D7FD009006E0FFF7D3FD0099CB
:1009A000411A4C4881423AD8286A8007F5D4019808
:1009B000002804D0E969012000078143E96120781B
:1009C000C00635D5606901280CD0401D686B23D066
:1009D00038436863686B400840006863FFF7B2FD06
:1009E000064622E0686B38436863686B304368638F
:1009F000FFF7A8FD064604E0FFF7A4FD801B0228D0
:100A00005BD8686B8007F7D5686BF8218843A169CC
:100A1000C900084368630BE0B8436863F4E74CE03F
:100A2000FFF790FD801B022847D8686B8007F7D43A
:100A3000206A002846D069680907890F022943D037
:100A4000012636060228286805D0B0432860FFF743
:100A500079FD044633E0B0432860FFF773FD074695
:100A600004E0FFF76FFDC01B022826D8286880012C
:100A7000F7D4E86AE16A000900010843E862616AA4
:100A8000A06A084369683D221204914308436860E4
:100A9000286830432860FFF755FD044604E0FFF75F
:100AA00051FD001B022808D828688001F7D509E00D
:100AB000FFF748FD001B022801D90320FEBD28686E
:100AC0008001F5D40020FEBD0120FEBD00100240D3
:100AD0000070004088130000F8B5040007D000261D
:100AE00025464035A662687F002802D005E0012037
:100AF000F8BD2E77204600F04BF802236B77206874
:100B000001684022914301600721E06809028842A0
:100B100001D9002201E0012212030F273F02B8424F
:100B200002D0884200D0A662276B002F05D18842F0
:100B300001D9236301E001202063A1686068636933
:100B400008432169194308430123A1695B02194045
:100B50000843E1690843216A0843A16A0843216800
:100B60000860616B606AA36908431B0C0427E16895
:100B70003B40194308432168104348602068C1691D
:100B80007A029143C1612666012068770020F8BD92
:100B900010B586B0044614216846FFF7BEFA114925
:100BA000206888421CD11048826981140A438261FE
:100BB00082690A400592426949010A4342614069DB
:100BC00008400590E02000900220019000210320C1
:100BD00003900291049109206946C006FFF702FCC8
:100BE00006B010BD0030014000100240FFB50646BF
:100BF00004464036307F002781B00D46012809D0D9
:100C000001203077FFF79EFC0090707F012804D010
:100C100002279DE0022005B0F0BD002D72D00398A0
:100C200000286FD00320707700202066A563039909
:100C3000A1870399E1872064B080F0802065E0649B
:100C40000121A068C903884205D1206801680122FA
:100C500092031143016020680168490603D40168CA
:100C60004022114301600720E16800028142606870
:100C700023D9002802D0E08F01281AD121682888C2
:100C8000C86005E020688168890706D52988C160A9
:100C9000E08F401EE087AD1C0BE0049800283ED09A
:100CA000401C06D0FFF74EFC0099411A049881427F
:100CB00035D2E08F0028E5D136E0002802D0E08F61
:100CC00001282ED1E08F012803D921682888C86027
:100CD0000CE02168287808730FE020688168890794
:100CE00011D5E18F012906D92988C160E08F801EC6
:100CF000E087AD1C15E029780173E08F401EE08786
:100D00006D1C0EE023E00498002808D0401C08D099
:100D1000FFF718FC0099411A0498814201D3032778
:100D200016E0E08F0028D8D12046009A049900F000
:100D3000C2F8002801D020202066A068002803D136
:100D40002068C16880680090206E002800D00127CC
:100D5000012070770020307738465CE7094910B5EC
:100D6000401E884201D9012010BD074C606103215B
:100D7000081F00F07DF80020A061072020610020FE
:100D800010BD0000FFFFFF0000E000E0FEE70000F4
:100D9000F0B587B014216846FFF7BFF91E484269D5
:100DA000012149040A43426142690A4005924269AD
:100DB00049000A4342614069184F084005900022EB
:100DC00002213846FFF7B7FB0326760209200022EE
:100DD0003146C006FFF7AFFB02200024012500903A
:100DE00002946946019503943846FFF7FBFA0920FF
:100DF00002946946C006009601950394FFF7F2FA43
:100E0000680300900920019469460294C006FFF728
:100E1000E9FA07B0F0BD00000010024000040048ED
:100E200010B511480F490160FF21053141600021D3
:100E30000722816012020161C260012241615202F7
:100E4000826101624162082281620723C261C3623A
:100E500042630163FFF740FE002801D0FFF7B2FABA
:100E600010BD000000300140080000207047000065
:100E70008307FF22DB0E9A408907090E994000285C
:100E80000BDA0007000F0838830808489B00181881
:100E9000C36993430B43C3617047830804489B00B5
:100EA0001B181868904308431860704700ED00E075
:100EB00000E400E07047F8B50F460B461546009277
:100EC000032104460022C90200F01BF82026002856
:100ED00012D13B46002280212046009500F05CF8AC
:100EE000002809D103213B460022490220460095F3
:100EF00000F007F8002803D0206E3043206603205E
:100F0000F8BDF8B51D4617460E4604463DE00321E0
:100F100049028E4205D1002F03D1017B6846017042
:100F20000078681C31D0002D05D0FFF70BFB069927
:100F3000401AA84229D320684168E02291434160C9
:100F40006068C11FFD390CD10121A068C903884226
:100F500002D04911884204D120680168402291439F
:100F600001600120A16A4003814207D121680A681B
:100F700082430A6021680A6802430A600120403403
:100F80006077002020770320F8BD20688168314019
:100F9000B942BCD10020F8BDF8B51D4617460E4633
:100FA000044633E0681C31D0002D05D0FFF7CAFAA3
:100FB0000699401AA84229D320684168E02291434B
:100FC00041606068C11FFD390CD10121A068C903CF
:100FD000884202D04911884204D120680168402229
:100FE000914301600120A16A4003814207D1216839
:100FF0000A6882430A6021680A6802430A60012085
:1010000040346077002020770320F8BD2068816895
:101010003046884304D00020B842C3D10020F8BD38
:101020000120F9E7704710B5FFF792FA10BD30B50F
:1010300091B030216846FFF770F800240D9401202C
:1010400003900E9402251020099404900095052029
:101050000F94C0040A900C9408950B946846FFF70F
:1010600091FB07200C900E9401210D950F940CA874
:10107000FFF7B0FA11B030BD1348016801221143E7
:1010800001604168114A114041600168104A1140F5
:1010900001600168012292049143016041683F228E
:1010A000120491434160C16A09090901C162016BDF
:1010B000FF22143291430163416B490849004163A7
:1010C0000021816070470000001002400CB8FF084A
:1010D000FFFFF6FE02E008C8121F08C1002AFAD17D
:1010E00070477047002001E001C1121F002AFBD1A8
:1010F00070470000FFF734FAFFF799FFFFF748FE4B
:10110000FFF78EFE0120FFF75DF80248FFF73CF87D
:10111000FEE7000018110008FFFFFFFFFFFFFFFFC1
:10112000FFFFFFFFFFFFFFFFFFFFFFFFFFFFFFFFCF
:10113000FFFFFFFFFFFFFFFFFFFFFFFFFFFFFFFFBF
:10114000FFFFFFFFFFFFFFFFFFFFFFFFFFFFFFFFAF
:10115000FFFFFFFFFFFFFFFFFFFFFFFFFFFFFFFF9F
:10116000FFFFFFFFFFFFFFFFFFFFFFFFFFFFFF800E
:1011700003FFFFFFFFFFFFFFFFFFFFFFFFFFFC007D
:1011800000FFFFFFFFFFFFFFFFFFFFFFFFFFF80074
:10119000003FFFFFFFFFFFFFFFFFFFFFFFFFE0003C
:1011A000000FFFFFFFFFFFFFFFFFFFFFFFFF8000BC
:1011B0000003FFFFFFFFFFFFFFFFFFFFFFFE000039
:1011C0000001FFFFFFFFFFFFFFFFFFFFFFFC00002D
:1011D00000007FFFFFFFFFFFFFFFFFFFFFF00000AA
:1011E00000001FFFFFFFFFFFFFFFFFFFFFC000002A
:1011F000000007FFFFFFFFFFFFFFFFFFFF000000F2
:10120000000003FFFFFFFFFFFFFFFFFFFE00001FC7
:10121000E00000FFFFFFFFFFFFFFFFFFF800007F80
:10122000F800003FFFFFFFFFFFFFFFFFE00000FFB0
:10123000FE00000FFFFFFFFFFFFFFFFF800003FF27
:10124000FF800007FFFFFFFFFFFFFFFF00000FFF12
:10125000FFE00001FFFFFFFFFFFFFFFC00003FFF7B
:10126000FFF000007FFFFFFFFFFFFFF000007FFFA8
:10127000FFFC00003FFFFFFFFFFFFFC00001FFFF7B
:10128000FFFF00000FFFFFFFFFFFFF800007FFFFD2
:10129000FFFFC00003FFFFFFFFFFFE00001FFFFF77
:1012A000FFFFE00000FFFFFFFFFFF800003FFFFF30
:1012B000FFFFF800007FFFFFFFFFF00000FFFFFFD0
:1012C000FFFFFE00001FFFFFFFFFC00003FFFFFF47
:1012D000FFFFFF80000FFFFFFFFF80000FFFFFFFFA
:1012E000FFFFFFC00003FFFFFFFF00001FFFFFFF26
:1012F000FFFFFFF00001FFFFFFFE00007FFFFFFF89
:10130000FFFFFFFC0000FFFFFFFC0001FFFFFFFFEE
:10131000FFFFFFFE0000FFFFFFFC0007FFFFFFFFD6
:10132000FFFFFFFF80007FFFFFF8000FFFFFFFFFC1
:10133000FFFFFFFFE0003FFFFFF8003FFE07FFFF5A
:10134000FFFFFFFFF8003FFFFFF0007FF801FFFF06
:10135000FFFFFFFFFC001FFFFFF001FFF0007FFF1A
:10136000FFFFFFFFFE001FFFFFE001FFE0000001A5
:10137000FFFFFFFFFF001FFFFFE003FFE060000033
:10138000FFFFFFFFFF800FFFFFE007FFE1F000011D
:10139000FFFFFFFFFF800FFFFFC007FFC1F8000046
:1013A000FFFFFFFFFFC00FFFFFC007FFC1F80001F5
:1013B000FFFFFFFFFFC00FFFFFC007FFC1F80000E6
:1013C000FFFFFFFFFFC007FFFFC00FFFE0F00000BF
:1013D000FFFFFFFFFFC007FFFFC00FFFE00000009F
:1013E0007FFFFFFFFFC007FFFFC00FFFF0000000FF
:1013F00000000000000007FFFFC00FFFF800FFF82B
:1014000000000000000007FFFFC00FFFFC03FFFC0F
:1014100000000000000007FFFFC00FFFFF0FFFFEEE
:1014200000000000000007FFFFC00FFFFFFFFFFEEE
:1014300000000000000007FFFFC00FFFFF9FFFFE3E
:1014400000000000000007FFFFC00FFFFC03FFFECD
:1014500000000000000007FFFFC007FFF801FFFCCD
:101460000000000000000FFFFF8007FFF0000000F9
:101470000000000000001FFFFF8003FFE0000000ED
:101480007FFFFFFFFFFFFFFFFF0383FFE0F0000090
:10149000FFFFFFFFFFFFFFFFFF0FC1FFC1F80000CD
:1014A000FFFFFFFFFFFFFFFFFF0FC1FFC1F80001BC
:1014B000FFFFFFFFFFFFFFFFFF0FC1FFC1F80001AC
:1014C000FFFFFFFFFFFEFFFFFF0FC1FFC1F800019D
:1014D000FFFFC0FFFFF01FFFFF0783FFE0F00001E9
:1014E000FFFF007FFFC00FFFFF0003FFE0000001D0
:1014F000FFFC001FFF8007FFFF8007FFF0001FFEBB
:101500000000001FFF8003FFFFC007FFF801FFFE80
:1015100000000C0FFF0383FFFFE01FFFFC03FFFE33
:1015200000003E0FFF07C1FFFFF87FFFFF9FFFFE98
:1015300000003F0FFF0FE1FFFFFFFFFFFFFFFFFE78
:1015400000003F0FFF0FE1FFFFFFFFFFFFFFFFFE68
:1015500000003F0FFF07C1FFFFFFFFFFFFFFFFFE80
:1015600000003E0FFF0781FFFFFFFFFFFFFFFFFCB3
:1015700000000C0FFF8003FFFFFFFFFFFFFFFFF0E6
:101580000000001FFF8007FFFFE0000000000000D8
:101590003FFE003FFFC007FFFFC00000000000004B
:1015A000FFFF007FFFC007FFFFC00000000000003A
:1015B000FFFFC1FFFFC007FFFFC0000000000000E9
:1015C000FFFFFFFFFFC007FFFFC00000000000009B
:1015D000FFFFFFFFFFC007FFFFC00000000000008B
:1015E000FFFF80FFFFC007FFFFC0000000000000FA
:1015F0007FFF003FFFC007FFFFC0000000000000AA
:101600001FF0001FFFC007FFFFC00FFFFFFFFFF825
:101610000000001FFFC007FFFFC00FFFFFFFFFFC20
:1016200000001E0FFFC007FFFFC00FFFFFFFFFFE00
:1016300000003F0FFFC007FFFFC007FFFFFFFFFED7
:1016400000003F0FFFC007FFFFC007FFFFFFFFFEC7
:1016500000003F0FFFC00FFFFFC007FFFFFFFFFEAF
:1016600000003F0FFFC00FFFFFE007FFFFFFFFFE7F
:1016700000001E0FFF800FFFFFE003FFFFFFFFFED4
:101680000000000FFF800FFFFFE001FFFFFFFFFFE3
:101690000000001FFF001FFFFFF001FFFFFFFFFF23
:1016A000FFFE003FFE001FFFFFF0007FFFFFFFFF78
:1016B000FFFF807FFC001FFFFFF8003FFFFFFFFFE1
:1016C000FFFFE1FFF8003FFFFFF8000FFFFFFFFF04
:1016D000FFFFFFFFE0003FFFFFFC0007FFFFFFFFF2
:1016E000FFFFFFFF80007FFFFFFC0001FFFFFFFF08
:1016F000FFFFFFFF0000FFFFFFFE00007FFFFFFF77
:10170000FFFFFFFC0000FFFFFFFF00001FFFFFFFC8
:10171000FFFFFFF00001FFFFFFFF80000FFFFFFF53
:10172000FFFFFFC00003FFFFFFFFC00003FFFFFF3D
:10173000FFFFFF800007FFFFFFFFE00000FFFFFF4C
:10174000FFFFFE00001FFFFFFFFFF800003FFFFF4D
:10175000FFFFF800007FFFFFFFFFFE00001FFFFFFD
:10176000FFFFE00000FFFFFFFFFFFF800007FFFF1C
:10177000FFFFC00003FFFFFFFFFFFFC00001FFFFEF
:10178000FFFF00000FFFFFFFFFFFFFF00000FFFF64
:10179000FFFC00001FFFFFFFFFFFFFFC00003FFFFB
:1017A000FFF000007FFFFFFFFFFFFFFF00000FFFC4
:1017B000FFE00001FFFFFFFFFFFFFFFF800003FFCF
:1017C000FF800007FFFFFFFFFFFFFFFFE00001FFBB
:1017D000FE00000FFFFFFFFFFFFFFFFFF800007F8D
:1017E000FC00003FFFFFFFFFFFFFFFFFFE00001FA9
:1017F000E00000FFFFFFFFFFFFFFFFFFFF00000013
:10180000000003FFFFFFFFFFFFFFFFFFFFC000001F
:10181000000007FFFFFFFFFFFFFFFFFFFFF00000DB
:1018200000001FFFFFFFFFFFFFFFFFFFFFFC0000A7
:1018300000007FFFFFFFFFFFFFFFFFFFFFFE000035
:101840000001FFFFFFFFFFFFFFFFFFFFFFFF800023
:101850000003FFFFFFFFFFFFFFFFFFFFFFFFE000B1
:10186000000FFFFFFFFFFFFFFFFFFFFFFFFFF00085
:10187000003FFFFFFFFFFFFFFFFFFFFFFFFFFC0039
:1018800000FFFFFFFFFFFFFFFFFFFFFFFFFFFF80E6
:1018900003FFFFFFFFFFFFFFFFFFFFFFFFFFFFFF54
:1018A000FFFFFFFFFFFFFFFFFFFFFFFFFFFFFFFF48
:1018B000FFFFFFFFFFFFFFFFFFFFFFFFFFFFFFFF38
:1018C000FFFFFFFFFFFFFFFFFFFFFFFFFFFFFFFF28
:1018D000FFFFFFFFFFFFFFFFFFFFFFFFFFFFFFFF18
:1018E000FFFFFFFFFFFFFFFFFFFFFFFE1FFC07FFE4
:1018F000FFFFFFFFFF83FFFFFFE0FE1E0FE001FF82
:10190000FFFFFFFFFF87FFFFFFE1FE1E0FC0007F0D
:10191000FFFFFFFFFF87FFFFFFE1FC1E0F80003F7F
:10192000FFFFFFFFFF87FFFFFFC1FC1F1F00E01F3E
:10193000FFFFFFFFFF87FFFFFFC1FC1FFE07F81F30
:10194000FFFFFFFFFF07FFFFFFC1FC1E1C0FFE7F15
:10195000F81FFF81FF07C0FFFFC1FC1C1C1FFFFF1A
:10196000E007FE007F0781FFFFC3FC3C181FFFFF5D
:10197000C003F8003F0703FFFFC0003C383FFFFFF4
:101980008001F8001F0E07FFFFC0003C383FFFFF3B
:1019900003C1F0381F080FFFFF80003C383F000EE6
:1019A0000FE0E0FE0F003FFFFF80003C387F000E9D
:1019B0000FF0E0FE0E007FFFFF83F838387F000E47
:1019C0000000E0000E00FFFFFF83F838383F000CF6
:1019D0000000C0000E00FFFFFF83F878383F001CB6
:1019E0000000C0000E007FFFFF87F878383FFC1C26
:1019F0001FFFC1FFFE103FFFFF87F0787C1FF81E1E
:101A00001FFFE1FFFE181FFFFF07F0787C07F03E85
:101A10000FCFE0FCFE1C1FFFFF07F0787E00007E6A
:101A20000003E0003E1E0FFFFF07F0707F0000FF85
:101A30000003F0003C1F07FFFF07F0707F8001FFED
:101A40008007F8007C1F03FFFF07F0F07FC003FF53
:101A5000C00FFC00FC1F81FFFFFFFFFFFFF81FFF0F
:101A6000F87FFF87FFFFFFFFFFFFFFFFFFFFFFFF85
:101A7000FFFFFFFFFFFFFFFFFFFFFFFFFFFFFFFF76
:101A8000FFFFFFFFFFFFFFFFFFFFFFBFFFFFFFFFA6
:101A9000FFFFFFFFFEFFFFFFFFFF3F9FFFCCFFFCAD
:101AA000FFFFCFFFFE7FFFFFFFFF3893FFCE7F00DA
:101AB00003FFCFFF0001FFFFFFFF3801FFCE7E7F56
:101AC000F9F0003F3FFDFFFFFFFE0F9FE0001E7F8C
:101AD000F9FFFF3F3FFDFFFFFFFC0F9FE0003F7F4F
:101AE000F9FFFE7F8001FFFFFFFF3803FCCCFF8082
:101AF00003FFFCFFF8FBFFFFFFFF3803FDCCFF00F7
:101B000007FFF9FFF273FFFFFFFF3DF3F9CCFFFC86
:101B1000FFFFF3FFC667FFFFFFFF3CE7F9CEFFFCC7
:101B2000FFFFE7FF1C4FFFFFFFFF0E4FF9CE7E00C8
:101B300001FFCFFFF14FFFFFFFFC1F0FFBCE7E0029
:101B400001FF9FFFC267FFFFFFFF3F1FF3CE7FFC38
:101B5000FFFE3FFF0C67FFFFFFFF3F1FF3CF3FFC80
:101B6000FFFC7FFFF873FFFFFFFF3E4FE7CF3FFC17
:101B7000FFF8FFFFC373FFFFFFFE3CE3E7CFBFFCAF
:101B800001F0001F0C79FFFFFFFE79F3EFDF9FFEEE
:101B900001F3801FF87FFFFFFFFFFFFFFFFFFFFF45
:101BA000FFFFFFFFFFFFFFFFFFFFFFFFFFFFFFFF45
:101BB000FFFFFFFFFFFFFFFFFFFFFFFFFFFFFFFF35
:101BC000FFFFFFFFFFFFFFFFFFFFFFFFFFFFFFFF25
:101BD000FFFFFFFFFFFFFFFFFFFFFFFFFFFFFFFF15
:10239000FFFFFFFFFFFFFFFF50AA55AA110000003B
:1023A000000000000000000000000000FFFF1F0010
:1023B000000000000000101818081818080000009D
:1023C0000000000000000000000013144412000090
:1023D00000000000000000000000000001020304F3
:1023E0000607080904240008000000200800000077
:1023F000D41000080C240008080000206804000025
:0C240000E41000080000000000127A0048
:04000005080000B13E
:00000001FF
